{
  "address": "0xFa82386Efb4b86581556734887246CC663845A1E",
  "abi": [
    {
      "inputs": [],
      "stateMutability": "nonpayable",
      "type": "constructor"
    },
    {
      "inputs": [],
      "name": "ReviewMe__NotWhitelisted",
      "type": "error"
    },
    {
      "inputs": [],
      "name": "amountOfReviews",
      "outputs": [
        {
          "internalType": "uint256",
          "name": "",
          "type": "uint256"
        }
      ],
      "stateMutability": "view",
      "type": "function"
    },
    {
      "inputs": [
        {
          "internalType": "uint256",
          "name": "reviewIndex",
          "type": "uint256"
        }
      ],
      "name": "getReviewByIndex",
      "outputs": [
        {
          "internalType": "string",
          "name": "",
          "type": "string"
        },
        {
          "internalType": "uint256",
          "name": "",
          "type": "uint256"
        }
      ],
      "stateMutability": "view",
      "type": "function"
    },
    {
      "inputs": [
        {
          "internalType": "string",
          "name": "_opinion",
          "type": "string"
        },
        {
          "internalType": "uint8",
          "name": "_starsNumber",
          "type": "uint8"
        }
      ],
      "name": "setReview",
      "outputs": [],
      "stateMutability": "nonpayable",
      "type": "function"
    }
  ],
  "transactionHash": "0x8fe9adae87c786a39039135df1d5550dd5ce15f60d03548f141f77a8fcd868fa",
  "args": [],
  "numDeployments": 3,
  "solcInputHash": "4166729b59c64ad6b399370392ee2e72",
  "bytecode": "0x60a06040527330168b3f07e2a2ed0c65776f6e81311b590e91c0600360006101000a81548173ffffffffffffffffffffffffffffffffffffffff021916908373ffffffffffffffffffffffffffffffffffffffff160217905550600360009054906101000a900473ffffffffffffffffffffffffffffffffffffffff16600460006101000a81548173ffffffffffffffffffffffffffffffffffffffff021916908373ffffffffffffffffffffffffffffffffffffffff1602179055503480156100c857600080fd5b503373ffffffffffffffffffffffffffffffffffffffff1660808173ffffffffffffffffffffffffffffffffffffffff1681525050608051610d5961011560003960005050610d596000f3fe608060405234801561001057600080fd5b50600436106100415760003560e01c8063158afdcb1461004657806378828b8014610062578063ca332c4114610093575b600080fd5b610060600480360381019061005b91906106da565b6100b1565b005b61007c6004803603810190610077919061076c565b610396565b60405161008a929190610827565b60405180910390f35b61009b610541565b6040516100a89190610857565b60405180910390f35b600460009054906101000a900473ffffffffffffffffffffffffffffffffffffffff1673ffffffffffffffffffffffffffffffffffffffff16639b19251a336040518263ffffffff1660e01b815260040161010c91906108b3565b6020604051808303816000875af115801561012b573d6000803e3d6000fd5b505050506040513d601f19601f8201168201806040525081019061014f9190610906565b610185576040517f46f5d38c00000000000000000000000000000000000000000000000000000000815260040160405180910390fd5b6000803373ffffffffffffffffffffffffffffffffffffffff1673ffffffffffffffffffffffffffffffffffffffff16815260200190815260200160002060010160019054906101000a900460ff1615610214576040517f08c379a000000000000000000000000000000000000000000000000000000000815260040161020b9061097f565b60405180910390fd5b816000803373ffffffffffffffffffffffffffffffffffffffff1673ffffffffffffffffffffffffffffffffffffffff16815260200190815260200160002060000190816102629190610bab565b50806000803373ffffffffffffffffffffffffffffffffffffffff1673ffffffffffffffffffffffffffffffffffffffff16815260200190815260200160002060010160006101000a81548160ff021916908360ff16021790555060016000803373ffffffffffffffffffffffffffffffffffffffff1673ffffffffffffffffffffffffffffffffffffffff16815260200190815260200160002060010160016101000a81548160ff0219169083151502179055506001339080600181540180825580915050600190039060005260206000200160009091909190916101000a81548173ffffffffffffffffffffffffffffffffffffffff021916908373ffffffffffffffffffffffffffffffffffffffff1602179055506002600081548092919061038d90610cac565b91905055505050565b60606000806000600185815481106103b1576103b0610cf4565b5b9060005260206000200160009054906101000a900473ffffffffffffffffffffffffffffffffffffffff1673ffffffffffffffffffffffffffffffffffffffff1673ffffffffffffffffffffffffffffffffffffffff168152602001908152602001600020600001600080600186815481106104305761042f610cf4565b5b9060005260206000200160009054906101000a900473ffffffffffffffffffffffffffffffffffffffff1673ffffffffffffffffffffffffffffffffffffffff1673ffffffffffffffffffffffffffffffffffffffff16815260200190815260200160002060010160009054906101000a900460ff168180546104b2906109ce565b80601f01602080910402602001604051908101604052809291908181526020018280546104de906109ce565b801561052b5780601f106105005761010080835404028352916020019161052b565b820191906000526020600020905b81548152906001019060200180831161050e57829003601f168201915b505050505091508060ff16905091509150915091565b60025481565b6000604051905090565b600080fd5b600080fd5b600080fd5b600080fd5b6000601f19601f8301169050919050565b7f4e487b7100000000000000000000000000000000000000000000000000000000600052604160045260246000fd5b6105ae82610565565b810181811067ffffffffffffffff821117156105cd576105cc610576565b5b80604052505050565b60006105e0610547565b90506105ec82826105a5565b919050565b600067ffffffffffffffff82111561060c5761060b610576565b5b61061582610565565b9050602081019050919050565b82818337600083830152505050565b600061064461063f846105f1565b6105d6565b9050828152602081018484840111156106605761065f610560565b5b61066b848285610622565b509392505050565b600082601f8301126106885761068761055b565b5b8135610698848260208601610631565b91505092915050565b600060ff82169050919050565b6106b7816106a1565b81146106c257600080fd5b50565b6000813590506106d4816106ae565b92915050565b600080604083850312156106f1576106f0610551565b5b600083013567ffffffffffffffff81111561070f5761070e610556565b5b61071b85828601610673565b925050602061072c858286016106c5565b9150509250929050565b6000819050919050565b61074981610736565b811461075457600080fd5b50565b60008135905061076681610740565b92915050565b60006020828403121561078257610781610551565b5b600061079084828501610757565b91505092915050565b600081519050919050565b600082825260208201905092915050565b60005b838110156107d35780820151818401526020810190506107b8565b60008484015250505050565b60006107ea82610799565b6107f481856107a4565b93506108048185602086016107b5565b61080d81610565565b840191505092915050565b61082181610736565b82525050565b6000604082019050818103600083015261084181856107df565b90506108506020830184610818565b9392505050565b600060208201905061086c6000830184610818565b92915050565b600073ffffffffffffffffffffffffffffffffffffffff82169050919050565b600061089d82610872565b9050919050565b6108ad81610892565b82525050565b60006020820190506108c860008301846108a4565b92915050565b60008115159050919050565b6108e3816108ce565b81146108ee57600080fd5b50565b600081519050610900816108da565b92915050565b60006020828403121561091c5761091b610551565b5b600061092a848285016108f1565b91505092915050565b7f596f75206861766520616c726561647920616464656420612072657669657700600082015250565b6000610969601f836107a4565b915061097482610933565b602082019050919050565b600060208201905081810360008301526109988161095c565b9050919050565b7f4e487b7100000000000000000000000000000000000000000000000000000000600052602260045260246000fd5b600060028204905060018216806109e657607f821691505b6020821081036109f9576109f861099f565b5b50919050565b60008190508160005260206000209050919050565b60006020601f8301049050919050565b600082821b905092915050565b600060088302610a617fffffffffffffffffffffffffffffffffffffffffffffffffffffffffffffffff82610a24565b610a6b8683610a24565b95508019841693508086168417925050509392505050565b6000819050919050565b6000610aa8610aa3610a9e84610736565b610a83565b610736565b9050919050565b6000819050919050565b610ac283610a8d565b610ad6610ace82610aaf565b848454610a31565b825550505050565b600090565b610aeb610ade565b610af6818484610ab9565b505050565b5b81811015610b1a57610b0f600082610ae3565b600181019050610afc565b5050565b601f821115610b5f57610b30816109ff565b610b3984610a14565b81016020851015610b48578190505b610b5c610b5485610a14565b830182610afb565b50505b505050565b600082821c905092915050565b6000610b8260001984600802610b64565b1980831691505092915050565b6000610b9b8383610b71565b9150826002028217905092915050565b610bb482610799565b67ffffffffffffffff811115610bcd57610bcc610576565b5b610bd782546109ce565b610be2828285610b1e565b600060209050601f831160018114610c155760008415610c03578287015190505b610c0d8582610b8f565b865550610c75565b601f198416610c23866109ff565b60005b82811015610c4b57848901518255600182019150602085019450602081019050610c26565b86831015610c685784890151610c64601f891682610b71565b8355505b6001600288020188555050505b505050505050565b7f4e487b7100000000000000000000000000000000000000000000000000000000600052601160045260246000fd5b6000610cb782610736565b91507fffffffffffffffffffffffffffffffffffffffffffffffffffffffffffffffff8203610ce957610ce8610c7d565b5b600182019050919050565b7f4e487b7100000000000000000000000000000000000000000000000000000000600052603260045260246000fdfea26469706673582212200bfb74196d299311570c533414e1435380bbeb15be32f9c577036194b654361564736f6c63430008110033",
  "devdoc": {
    "kind": "dev",
    "methods": {},
    "version": 1
  },
  "userdoc": {
    "kind": "user",
    "methods": {},
    "version": 1
  },
  "storageLayout": {
    "storage": [
      {
        "astId": 20,
        "contract": "contracts/ReviewMe.sol:ReviewMe",
        "label": "userToReview",
        "offset": 0,
        "slot": "0",
        "type": "t_mapping(t_address,t_struct(RatingProduct)41_storage)"
      },
      {
        "astId": 23,
        "contract": "contracts/ReviewMe.sol:ReviewMe",
        "label": "reviewers",
        "offset": 0,
        "slot": "1",
        "type": "t_array(t_address)dyn_storage"
      },
      {
        "astId": 25,
        "contract": "contracts/ReviewMe.sol:ReviewMe",
        "label": "amountOfReviews",
        "offset": 0,
        "slot": "2",
        "type": "t_uint256"
      },
      {
        "astId": 28,
        "contract": "contracts/ReviewMe.sol:ReviewMe",
        "label": "WhitelistContractAddress",
        "offset": 0,
        "slot": "3",
        "type": "t_address"
      },
      {
        "astId": 34,
        "contract": "contracts/ReviewMe.sol:ReviewMe",
        "label": "whitelistContract",
        "offset": 0,
        "slot": "4",
        "type": "t_contract(WhitelistInterface)13"
      }
    ],
    "types": {
      "t_address": {
        "encoding": "inplace",
        "label": "address",
        "numberOfBytes": "20"
      },
      "t_array(t_address)dyn_storage": {
        "base": "t_address",
        "encoding": "dynamic_array",
        "label": "address[]",
        "numberOfBytes": "32"
      },
      "t_bool": {
        "encoding": "inplace",
        "label": "bool",
        "numberOfBytes": "1"
      },
      "t_contract(WhitelistInterface)13": {
        "encoding": "inplace",
        "label": "contract WhitelistInterface",
        "numberOfBytes": "20"
      },
      "t_mapping(t_address,t_struct(RatingProduct)41_storage)": {
        "encoding": "mapping",
        "key": "t_address",
        "label": "mapping(address => struct ReviewMe.RatingProduct)",
        "numberOfBytes": "32",
        "value": "t_struct(RatingProduct)41_storage"
      },
      "t_string_storage": {
        "encoding": "bytes",
        "label": "string",
        "numberOfBytes": "32"
      },
      "t_struct(RatingProduct)41_storage": {
        "encoding": "inplace",
        "label": "struct ReviewMe.RatingProduct",
        "members": [
          {
            "astId": 36,
            "contract": "contracts/ReviewMe.sol:ReviewMe",
            "label": "opinion",
            "offset": 0,
            "slot": "0",
            "type": "t_string_storage"
          },
          {
            "astId": 38,
            "contract": "contracts/ReviewMe.sol:ReviewMe",
            "label": "starsNumber",
            "offset": 0,
            "slot": "1",
            "type": "t_uint8"
          },
          {
            "astId": 40,
            "contract": "contracts/ReviewMe.sol:ReviewMe",
            "label": "isReviewed",
            "offset": 1,
            "slot": "1",
            "type": "t_bool"
          }
        ],
        "numberOfBytes": "64"
      },
      "t_uint256": {
        "encoding": "inplace",
        "label": "uint256",
        "numberOfBytes": "32"
      },
      "t_uint8": {
        "encoding": "inplace",
        "label": "uint8",
        "numberOfBytes": "1"
      }
    }
  }
}